{
  "contractName": "Flip",
  "abi": [
    {
      "constant": true,
      "inputs": [],
      "name": "balance",
      "outputs": [
        {
          "internalType": "uint256",
          "name": "",
          "type": "uint256"
        }
      ],
      "payable": false,
      "stateMutability": "view",
      "type": "function"
    },
    {
      "constant": true,
      "inputs": [],
      "name": "owner",
      "outputs": [
        {
          "internalType": "address",
          "name": "",
          "type": "address"
        }
      ],
      "payable": false,
      "stateMutability": "view",
      "type": "function"
    },
    {
      "constant": false,
      "inputs": [],
      "name": "flipCoin",
      "outputs": [],
      "payable": true,
      "stateMutability": "payable",
      "type": "function"
    },
    {
      "constant": false,
      "inputs": [],
      "name": "withdrawAll",
      "outputs": [
        {
          "internalType": "uint256",
          "name": "",
          "type": "uint256"
        }
      ],
      "payable": false,
      "stateMutability": "nonpayable",
      "type": "function"
    }
  ],
  "bytecode": "0x60806040526801158e460913d00000600155336000806101000a81548173ffffffffffffffffffffffffffffffffffffffff021916908373ffffffffffffffffffffffffffffffffffffffff1602179055506102aa806100606000396000f3fe60806040526004361061003f5760003560e01c8063799ae22314610044578063853828b61461004e5780638da5cb5b14610079578063b69ef8a8146100d0575b600080fd5b61004c6100fb565b005b34801561005a57600080fd5b50610063610180565b6040518082815260200191505060405180910390f35b34801561008557600080fd5b5061008e610238565b604051808273ffffffffffffffffffffffffffffffffffffffff1673ffffffffffffffffffffffffffffffffffffffff16815260200191505060405180910390f35b3480156100dc57600080fd5b506100e561025d565b6040518082815260200191505060405180910390f35b6000349050600161010a610263565b141561016c57806001600082825403925050819055503373ffffffffffffffffffffffffffffffffffffffff166108fc829081150290604051600060405180830381858888f19350505050158015610166573d6000803e3d6000fd5b5061017d565b806001600082825401925050819055505b50565b60008060009054906101000a900473ffffffffffffffffffffffffffffffffffffffff1673ffffffffffffffffffffffffffffffffffffffff163373ffffffffffffffffffffffffffffffffffffffff16146101db57600080fd5b6000600154905060006001819055503373ffffffffffffffffffffffffffffffffffffffff166108fc829081150290604051600060405180830381858888f19350505050158015610230573d6000803e3d6000fd5b508091505090565b6000809054906101000a900473ffffffffffffffffffffffffffffffffffffffff1681565b60015481565b60006002428161026f57fe5b0690509056fea265627a7a723158204b150e98ea08dc81d63a02b0b0ebc6177c35f5ee49e7ec22c337e23b0f9673a464736f6c634300050c0032",
  "source": "import \"./Ownable.sol\";\r\npragma solidity 0.5.12;\r\n\r\ncontract Flip is Ownable {\r\n\r\n    uint public balance = 20000000000000000000;//paresInt(web3.utils.toWei('20',\"ether\"));\r\n\r\n    function flipCoin() public payable {\r\n\r\n      uint betAmmount = msg.value;\r\n\r\n      if (random() == 1)\r\n      {\r\n        balance -= betAmmount;\r\n        msg.sender.transfer(betAmmount);\r\n      }\r\n      else\r\n      {\r\n        balance += betAmmount;\r\n      }\r\n    }\r\n\r\n    function random() private returns(uint) {\r\n      return now % 2;\r\n    }\r\n\r\n    function withdrawAll() public onlyOwner returns(uint) {\r\n        uint toTransfer = balance;\r\n        balance = 0;\r\n        msg.sender.transfer(toTransfer);\r\n        return toTransfer;\r\n    }\r\n}\r\n",
  "sourcePath": "G:/Git Repo/TheOddFlip/Backend/contracts/Flip.sol",
  "compiler": {
    "name": "solc",
    "version": "0.5.12+commit.7709ece9.Emscripten.clang"
  },
  "schemaVersion": "3.0.16",
  "updatedAt": "2020-10-29T22:31:56.142Z",
  "devdoc": {
    "methods": {}
  },
  "userdoc": {
    "methods": {}
  }
}