{
  "contractName": "Flip",
  "abi": [
    {
      "constant": true,
      "inputs": [],
      "name": "balance",
      "outputs": [
        {
          "internalType": "uint256",
          "name": "",
          "type": "uint256"
        }
      ],
      "payable": false,
      "stateMutability": "view",
      "type": "function"
    },
    {
      "constant": true,
      "inputs": [],
      "name": "owner",
      "outputs": [
        {
          "internalType": "address",
          "name": "",
          "type": "address"
        }
      ],
      "payable": false,
      "stateMutability": "view",
      "type": "function"
    },
    {
      "constant": false,
      "inputs": [
        {
          "internalType": "uint256",
          "name": "betOption",
          "type": "uint256"
        }
      ],
      "name": "flipCoin",
      "outputs": [],
      "payable": true,
      "stateMutability": "payable",
      "type": "function"
    },
    {
      "constant": false,
      "inputs": [],
      "name": "withdrawAll",
      "outputs": [
        {
          "internalType": "uint256",
          "name": "",
          "type": "uint256"
        }
      ],
      "payable": false,
      "stateMutability": "nonpayable",
      "type": "function"
    }
  ],
  "bytecode": "0x60806040523073ffffffffffffffffffffffffffffffffffffffff1631600155336000806101000a81548173ffffffffffffffffffffffffffffffffffffffff021916908373ffffffffffffffffffffffffffffffffffffffff16021790555061035a8061006e6000396000f3fe60806040526004361061003f5760003560e01c80635f5be1f414610044578063853828b6146100725780638da5cb5b1461009d578063b69ef8a8146100f4575b600080fd5b6100706004803603602081101561005a57600080fd5b810190808035906020019092919050505061011f565b005b34801561007e57600080fd5b50610087610201565b6040518082815260200191505060405180910390f35b3480156100a957600080fd5b506100b26102b9565b604051808273ffffffffffffffffffffffffffffffffffffffff1673ffffffffffffffffffffffffffffffffffffffff16815260200191505060405180910390f35b34801561010057600080fd5b506101096102de565b6040518082815260200191505060405180910390f35b6001543410610179576040517f08c379a000000000000000000000000000000000000000000000000000000000815260040180806020018281038252602f8152602001806102f7602f913960400191505060405180910390fd5b6000349050816101876102e4565b14156101ec57806001600082825403925050819055503373ffffffffffffffffffffffffffffffffffffffff166108fc600283029081150290604051600060405180830381858888f193505050501580156101e6573d6000803e3d6000fd5b506101fd565b806001600082825401925050819055505b5050565b60008060009054906101000a900473ffffffffffffffffffffffffffffffffffffffff1673ffffffffffffffffffffffffffffffffffffffff163373ffffffffffffffffffffffffffffffffffffffff161461025c57600080fd5b6000600154905060006001819055503373ffffffffffffffffffffffffffffffffffffffff166108fc829081150290604051600060405180830381858888f193505050501580156102b1573d6000803e3d6000fd5b508091505090565b6000809054906101000a900473ffffffffffffffffffffffffffffffffffffffff1681565b60015481565b6000600242816102f057fe5b0690509056fe62657420616d6d6f756e74206d757374206265206c6f776572207468616e20636f6e74726163742062616c616e6365a265627a7a72315820daeb83018b82c2f6399bc48c690595c7ad061c149023eacab0f76c7d1cbb9e3664736f6c634300050c0032",
  "source": "import \"./Ownable.sol\";\r\npragma solidity 0.5.12;\r\n\r\ncontract Flip is Ownable {\r\n\r\n    uint public balance = address(this).balance;\r\n\r\n    function flipCoin(uint betOption) public payable {\r\n\r\n      require(msg.value < balance, \"bet ammount must be lower than contract balance\");\r\n\r\n      uint betAmmount = msg.value;\r\n\r\n      if (random() == betOption)\r\n      {\r\n        balance -= betAmmount;\r\n        msg.sender.transfer(betAmmount*2);\r\n      }\r\n      else\r\n      {\r\n        balance += betAmmount;\r\n      }\r\n    }\r\n\r\n    function random() private returns(uint) {\r\n      return now % 2;\r\n    }\r\n\r\n    function withdrawAll() public onlyOwner returns(uint) {\r\n        uint toTransfer = balance;\r\n        balance = 0;\r\n        msg.sender.transfer(toTransfer);\r\n        return toTransfer;\r\n    }\r\n}\r\n",
  "sourcePath": "G:/Git Repo/TheOddFlip/Backend/contracts/Flip.sol",
  "compiler": {
    "name": "solc",
    "version": "0.5.12+commit.7709ece9.Emscripten.clang"
  },
  "schemaVersion": "3.0.16",
  "updatedAt": "2020-11-04T18:56:48.356Z",
  "devdoc": {
    "methods": {}
  },
  "userdoc": {
    "methods": {}
  }
}