{
  "contractName": "Flip",
  "abi": [
    {
      "constant": true,
      "inputs": [],
      "name": "balance",
      "outputs": [
        {
          "internalType": "uint256",
          "name": "",
          "type": "uint256"
        }
      ],
      "payable": false,
      "stateMutability": "view",
      "type": "function"
    },
    {
      "constant": true,
      "inputs": [],
      "name": "owner",
      "outputs": [
        {
          "internalType": "address",
          "name": "",
          "type": "address"
        }
      ],
      "payable": false,
      "stateMutability": "view",
      "type": "function"
    },
    {
      "constant": false,
      "inputs": [],
      "name": "flipCoin",
      "outputs": [],
      "payable": true,
      "stateMutability": "payable",
      "type": "function"
    },
    {
      "constant": true,
      "inputs": [],
      "name": "getUserDetails",
      "outputs": [
        {
          "internalType": "uint256",
          "name": "balance",
          "type": "uint256"
        },
        {
          "internalType": "address",
          "name": "userAddress",
          "type": "address"
        }
      ],
      "payable": false,
      "stateMutability": "view",
      "type": "function"
    },
    {
      "constant": false,
      "inputs": [],
      "name": "withdrawAll",
      "outputs": [
        {
          "internalType": "uint256",
          "name": "",
          "type": "uint256"
        }
      ],
      "payable": false,
      "stateMutability": "nonpayable",
      "type": "function"
    }
  ],
  "bytecode": "0x6080604052674563918244f40000600155336000806101000a81548173ffffffffffffffffffffffffffffffffffffffff021916908373ffffffffffffffffffffffffffffffffffffffff1602179055506103478061005f6000396000f3fe60806040526004361061004a5760003560e01c8063799ae2231461004f578063853828b6146100595780638da5cb5b14610084578063942886be146100db578063b69ef8a814610139575b600080fd5b610057610164565b005b34801561006557600080fd5b5061006e6101ec565b6040518082815260200191505060405180910390f35b34801561009057600080fd5b506100996102a4565b604051808273ffffffffffffffffffffffffffffffffffffffff1673ffffffffffffffffffffffffffffffffffffffff16815260200191505060405180910390f35b3480156100e757600080fd5b506100f06102c9565b604051808381526020018273ffffffffffffffffffffffffffffffffffffffff1673ffffffffffffffffffffffffffffffffffffffff1681526020019250505060405180910390f35b34801561014557600080fd5b5061014e6102fa565b6040518082815260200191505060405180910390f35b60003490506001610173610300565b14156101d857806001600082825403925050819055503373ffffffffffffffffffffffffffffffffffffffff166108fc600283029081150290604051600060405180830381858888f193505050501580156101d2573d6000803e3d6000fd5b506101e9565b806001600082825401925050819055505b50565b60008060009054906101000a900473ffffffffffffffffffffffffffffffffffffffff1673ffffffffffffffffffffffffffffffffffffffff163373ffffffffffffffffffffffffffffffffffffffff161461024757600080fd5b6000600154905060006001819055503373ffffffffffffffffffffffffffffffffffffffff166108fc829081150290604051600060405180830381858888f1935050505015801561029c573d6000803e3d6000fd5b508091505090565b6000809054906101000a900473ffffffffffffffffffffffffffffffffffffffff1681565b600080670de0b6b3a76400003373ffffffffffffffffffffffffffffffffffffffff16310233809050915091509091565b60015481565b60006002428161030c57fe5b0690509056fea265627a7a723158207289601ef311f21a7b4cf59807e266931b6cfacf45524b88c63dc83b67e935aa64736f6c634300050c0032",
  "source": "import \"./Ownable.sol\";\r\npragma solidity 0.5.12;\r\n\r\ncontract Flip is Ownable {\r\n\r\n    uint public balance = 5000000000000000000;//paresInt(web3.utils.toWei('20',\"ether\"));\r\n\r\n    function flipCoin() public payable {\r\n\r\n      uint betAmmount = msg.value;\r\n\r\n      if (random() == 1)\r\n      {\r\n        balance -= betAmmount;\r\n        msg.sender.transfer(betAmmount*2);\r\n      }\r\n      else\r\n      {\r\n        balance += betAmmount;\r\n      }\r\n    }\r\n\r\n    function random() private returns(uint) {\r\n      return now % 2;\r\n    }\r\n\r\n    function getUserDetails() public view returns(uint balance, address userAddress){\r\n      return (msg.sender.balance * 1 ether, msg.sender);\r\n    }\r\n\r\n    function withdrawAll() public onlyOwner returns(uint) {\r\n        uint toTransfer = balance;\r\n        balance = 0;\r\n        msg.sender.transfer(toTransfer);\r\n        return toTransfer;\r\n    }\r\n}\r\n",
  "sourcePath": "G:/Git Repo/TheOddFlip/Backend/contracts/Flip.sol",
  "compiler": {
    "name": "solc",
    "version": "0.5.12+commit.7709ece9.Emscripten.clang"
  },
  "schemaVersion": "3.0.16",
  "updatedAt": "2020-11-02T22:53:16.577Z",
  "devdoc": {
    "methods": {}
  },
  "userdoc": {
    "methods": {}
  }
}